S01C00004E544920656D6265646465642070726F6A6563742E73726563BC
S113000045C000000C940F080C943A080C94650841
S11300100C94900859C0000057C0000055C000005F
S113002053C0000051C000004FC000004DC000008C
S11300300C94810F49C0000047C0000045C0000077
S11300400C94470941C000000C94250B3DC00000EE
S11300503BC0000039C0000037C0000035C00000BC
S113006033C0000031C000002FC000002DC00000CC
S11300702BC000000C94260A0C94500B25C00000E1
S113008023C0000021C000001FC0000011241FBEB7
S1130090CFEFD0E1DEBFCDBF13E0A0E0B1E0E6EFEB
S11300A0F5E300E00BBF02C007900D92AC34B1073A
S11300B0D9F72AE0ACE4B3E001C01D92AB30B2073B
S11300C0E1F731D00C94F91A9BCF8091000A81306A
S11300D089F436D546D54DD5809350034AD58093BF
S11300E04F0347D580934E0344D580934D0341D5A8
S11300F080934C03089580E00E94CF084CD60E9460
S11301007B0B79D76ED566D688D6F1D578D581E0C4
S113011087D640E157E260E070E085E690E00E9417
S1130120130978940895E7DF43E060E081E00E94DA
S113013069109093FF098093FE09009739F020E03D
S113014040E050E060E070E00E94931040E06EE117
S113015082E00E9469109093F9098093F8090E9443
S11301606F0C9093FB098093FA09A12CB12CC12C3C
S1130170D12CE12CF12C01E020E030E046E950E004
S113018065E071E084EA94E00E94151202E020E048
S113019030E046E950E064E171E088EE92E00E94CC
S11301A0151203E020E030E046E950E06EE171E032
S11301B08EEA91E00E94151204E020E030E048EC61
S11301C050E068E271E085EF90E00E94151205E0CE
S11301D020E030E044E650E062E371E08DEF93E02C
S11301E00E9415120E941A13FFCF80E040D684EFBC
S11301F091E00E947F141092000184EF91E00E942C
S11302007F146FE371E08EE491E03FD600E117E2E2
S113021020E041E068E070E08091FA099091FB09E8
S11302200E94800C83FF13C043E551E061E081E04C
S1130230A1D581E08093000188EE93E00E947F14B1
S113024080E058D688EE93E00E947F1406C043E60F
S113025051E061E081E08ED5FFCF20E04FEF5FEF0A
S113026060E070E08091FE099091FF090E942511E1
S1130270882399F3109200014FE651E062E771E0A0
S113028087E791E046D600EA1FE020E041E068E01D
S113029070E08091FA099091FB090E94800C83FF21
S11302A009C049E851E061E082E064D581E08093CF
S11302B0000105C04BE951E061E082E05BD588EEC6
S11302C093E00E947F1489EA91E00E94980B08E869
S11302D013E120E041E064E070E08091FA0990913C
S11302E0FB090E94800C82FF2DC088EE93E00E94DF
S11302F07F148FEA91E00E94C60B20E041E062E0A7
S113030070E08091FA099091FB090E94800C81FFB2
S11303100DC081E08093000A4FEB51E061E02AD5E3
S113032040ED51E061E082E025D597CF20E040E048
S113033050E060E070E08091FE099091FF090E9416
S113034093108BCF20E040E050E060E070E08091BB
S1130350FE099091FF090E9493107FCFCF93DF9302
S1130360CDB7DEB72F970FB6F894DEBF0FBECDBF63
S1130370FE0131968FE0DF011D928A95E9F780E353
S11303808983C12CD12CE12CF12C10E05E01B0E169
S1130390AB0EB11C4F017E2E092D512C612C44242F
S11303A0439409C0C52CD62CE52CF62C04C0C52CCE
S11303B0D62CE52CF62C20E04FEF5FEF61E573E0DF
S11303C08091F8099091F9090E942511811114C0B6
S11303D0F2CF1F5F212F30E0F901EF5AFC4F8081EB
S11303E0843211F47F010BC0833249F4C9018F5A5E
S11303F09C4F6C0110E005C01E3158F302C01E3141
S113040041F7E114F104B9F2C114D104A1F2CE18F8
S1130410FE0131961192EA15FB05E1F710E0812FF8
S113042090E0F401E80FF91FD701A80FB91F8C91D0
S113043080831F5FC11698F761EE71E0872D902FBE
S11304400E941518892B39F440926F0384EF91E0D0
S11304500E947F140EC069EE71E0872D902F0E94D8
S11304601518892B31F410926F0384EF91E00E94E8
S11304707F1480916F03811195CF62EF71E0872D16
S1130480902F0E941518892B51F49FD384EF91E08B
S11304900E947F14C52CD62CE52CF62C8CCF6BEF48
S11304A071E0872D902F0E941518892B51F493D356
S11304B084EF91E00E947F14C52CD62CE52CF62CF9
S11304C07ACF65E072E0872D902F0E941518892B52
S11304D051F49FD484EF91E00E947F14C52CD62C54
S11304E0E52CF62C68CF6DE072E0872D902F0E94EA
S11304F01518892B51F48FD484EF91E00E947F1456
S1130500C52CD62CE52CF62C56CF66E172E0872D4F
S1130510902F0E941518892B51F477D384EF91E022
S11305200E947F14C52CD62CE52CF62C44CF62E215
S113053072E0872D902F0E941518892B61F489E1B0
S113054090E056D384EF91E00E947F14C52CD62C02
S1130550E52CF62C30CF6DE272E0872D902F0E94AF
S11305601518892B61F482E390E042D384EF91E083
S11305700E947F14C52CD62CE52CF62C1CCF68E3E6
S113058072E0872D902F0E941518892B61F48BE45B
S113059090E02ED384EF91E00E947F14C52CD62CDA
S11305A0E52CF62C08CF63E472E0872D902F0E948F
S11305B01518892B09F0FBCE84E690E019D384EF5B
S11305C091E00E947F14C52CD62CE52CF62CF3CE9A
S11305D0CF93DF93CDB7DEB764970FB6F894DEBF41
S11305E00FBECDBF95E0FE013196DF01292F1D928C
S11305F02A95E9F780E389833596DF01292F1D9237
S11306002A95E9F78E833596DF01292F1D922A95C5
S1130610E9F78B873596DF011D929A95E9F7888B68
S11306200F2EFDE4AF2EF2E0BF2EF02D6F017E0100
S11306302BE0E20EF11CBE016F5F7F4F3B014E01C8
S113064076E0870E911C8091000A813009F0D0C0B9
S11306500E94610C08E813E120E041E060E170E0F1
S11306608091FA099091FB090E94800C84FFB3C029
S113067088EE93E00E947F1482E793E08ED380910A
S113068073038F93809172038F93BF92AF92DF9223
S1130690CF920E941E18F60101900020E9F73197CD
S11306A0AF014C195D0920E0B60180E592E00E949B
S11306B0F90BA6016DE082E05DD38CEB92E00E9421
S11306C07F1480E793E088D3809171038F938091A6
S11306D070038F93BF92AF92FF92EF920E941E1805
S11306E0F70101900020E9F73197AF014E195F0936
S11306F020E0B7018AE592E00E94F90BA7016EE0C1
S113070081E038D388EE93E00E947F144091500337
S113071080914F0390E0840F911D20914E03820F2E
S1130720911D20914D03820F911D20914C0330E0C7
S11307300FB6F894DEBF0FBECDBF8217930731F01A
S113074045E652E060E081E015D352C01F924F931A
S1130750BF92AF927F926F920E941E18F301019094
S11307600020E9F73197AF014619570920E0B3019A
S11307708BE692E00E94F90BA30165E082E0FAD2D5
S11307808CEB92E00E947F1480914E031F928F9312
S1130790BF92AF929F928F920E941E18A40166E0AE
S11307A081E0E8D28FEDC3D285E792E0C2D2F401B2
S11307B001900020E9F73197AF014819590920E069
S11307C0B40184E191E00E94F90B0FB6F894DEBF06
S11307D00FBECDBF0DC01092000A20E040E050E0F3
S11307E060E070E08091FE099091FF090E949310EF
S11307F080E49FE10E947F1426CFCF93DF931F9262
S1130800CDB7DEB71982F12C00E010E00F2EF4E72B
S1130810CF2EF3E0DF2EF02D6894EE24E1F8BB2414
S1130820B39402C00F2D10E0BE016F5F7F4F80E0D4
S1130830F0D6882309F483C01130B9F118F01230CE
S1130840D1F1F2CF809100018130E9F489818A33BA
S113085059F780E0B9D68983803D41F460E170E0C6
S11308608091FA099091FB090E94040D89818039D5
S113087031F0982F9F7E903211F08034A9F6F60162
S113088080831B2DD1CF8111CFCF89818F3461F625
S113089080E09AD68B3441F668E070E08091FA09E2
S11308A09091FB090E94040DBFCFF980F601F182FB
S11308B000E01E2DB9CFE02FF0E0EC58FC4F898109
S11308C082830F5FF012B0CFF6018081803349F04C
S11308D018F4803299F0A6CF8034D9F0803921F110
S11308E0A1CF20E040E050E0B6018091F80990915A
S11308F0F9090E9493100F2D10E096CF64E070E088
S11309008091FA099091FB090E94040D0F2D10E0CB
S11309108BCF61E070E08091FA099091FB090E940D
S1130920040D0F2D10E080CF62E070E08091FA0991
S11309309091FB090E94040D0F2D10E075CF82E009
S113094090E00E947F1470CFB12CC12CE12CF12CCB
S113095000E010E0D0E0DD24D394C0E080916F0388
S1130960813009F0E8C0809170039091710389325D
S1130970910568F4D1110BC04CD28091000A8130EA
S1130980B1F484EF91E00E947F14DD2D13C08997A8
S1130990CC9780F4D13071F43ED28091000A81303A
S11309A041F484EF91E00E947F14DC2F03C0DD2D1D
S11309B001C0DC2F80914E039CED980F983168F4B0
S11309C011110BC002D18091000A8130B1F484EF7F
S11309D091E00E947F141D2D13C08150823280F457
S11309E0113071F4F8D08091000A813041F484EF21
S11309F091E00E947F141C2F03C01D2D01C01C2FE9
S1130A0080917203909173039C0121553109243123
S1130A103105A0F4011112C08091000A813009F05F
S1130A206DC084E690E0E4D084EF91E00E947F14EE
S1130A30BC2ECC2EEC2EFC2E0D2D7DC09C012C53F7
S1130A40310925313105A0F4F11012C08BE490E096
S1130A50CFD08091000A813009F056C084EF91E034
S1130A600E947F14BC2ECC2EEC2EFD2C0C2F63C0C8
S1130A709C012852310924313105A0F4E11012C03F
S1130A8082E390E0B5D08091000A813009F042C041
S1130A9084EF91E00E947F14BC2ECC2EED2CFC2E12
S1130AA00C2F49C09C01245131092431310598F49B
S1130AB0C11011C089E190E09BD08091000A81307F
S1130AC079F584EF91E00E947F14BC2ECD2CEC2E9E
S1130AD0FC2E0C2F30C0449770F5B1102CC095D06B
S1130AE08091000A813011F584EF91E00E947F1417
S1130AF0BD2CCC2EEC2EFC2E0C2F1DC0BC2ECC2ECF
S1130B00EC2EFC2E0D2D17C0BC2ECC2EEC2EFD2C65
S1130B100C2F11C0BC2ECC2EED2CFC2E0C2F0BC098
S1130B20BC2ECD2CEC2EFC2E0C2F05C0BD2CCC2EB7
S1130B30EC2EFC2E0C2F88E893E10E947F140ECF3C
S1130B40129A1A9A8FEC97E00197F1F700C000000F
S1130B501A988FE39CE90197F1F700C000001A9AF4
S1130B60089512980A99FECF0A9BFECF0A99FECFE8
S1130B70089587E090E041E050E00A9BFECF20E535
S1130B802A95F1F70A9B0DC0609192039A01082EF1
S1130B9002C0220F331F0A94E2F7262B20939203FC
S1130BA00DC09A01082E02C0220F331F0A94E2F7E7
S1130BB02095309192032323209392030A99FECF28
S1130BC00197D8F6809192030895E2E6F0E08081DF
S1130BD0886080830895E2E6F0E08081877F8083E7
S1130BE00895E1E6F0E0808188608083F4CF089581
S1130BF0CF93C82FB5D38C2F18D4CF91089582E00A
S1130C00C7D3139A84E6F4CF089580E00ED48FEC12
S1130C1097E00197F1F700C00000AEC30895C598AE
S1130C2095B39F7095BB95B3282F207F922B95BBCE
S1130C30C79AEFECF7E03197F1F700C00000C798CE
S1130C40EFECF7E03197F1F700C0000095B39F7027
S1130C5095BB25B3F0E18F9FC0011124822B85BB86
S1130C60C79A8FEC97E00197F1F700C00000C7988E
S1130C70EFECF7E03197F1F700C00000FAE6FA95DF
S1130C80F1F700C00895C59A95B39F7095BB95B3CD
S1130C90282F207F922B95BBC79AEFECF7E0319772
S1130CA0F1F700C00000C798EFECF7E03197F1F7D7
S1130CB000C0000095B39F7095BB25B3F0E18F9FF2
S1130CC0C0011124822B85BBC79A8FEC97E0019752
S1130CD0F1F700C00000C798EFECF7E03197F1F7A7
S1130CE000C00000FAE6FA95F1F700C0089584B355
S1130CF0806F84BBBF9ABD9ABE9AC698149A1C9AF8
S1130D008FE39CE90197F1F700C0000082E087DFE0
S1130D1088E285DF81E083DF8CE081DF86E07FDFAE
S1130D208FE39CE90197F1F700C000000895ABCF71
S1130D300895EF92FF920F931F93CF93DF938C014B
S1130D407C01C0E0D0E005C0F70181917F019BDF09
S1130D502196F80101900020E9F73197E01BF10B8F
S1130D60CE17DF0788F3DF91CF911F910F91FF908A
S1130D70EF900895CF93DF93EA01813021F48FE758
S1130D80860F4DDF03C08FEB860F49DFCE01D1DF25
S1130D90DF91CF9108952FC10895CF93DF93EC0194
S1130DA081E032D1BC0180E090E00E94E01620E0B6
S1130DB030E844E554E40E944C1620E030E048EC6E
S1130DC052E40E946E170E94B41679836883DF91FF
S1130DD0CF91089510C10895CF93DF93EC0186E07D
S1130DE013D1BC0180E090E00E94E01620E030E0E6
S1130DF04AE754E40E944C1620E030E048EC52E408
S1130E000E946E170E94B41679836883DF91CF9194
S1130E100895909A089590980895889AFCCF08951B
S1130E20CF93C82F40E855E260E070E080E077D3CC
S1130E30C23049F0C33061F0C13071F467E772E049
S1130E4080E0D5D309C069E872E080E0D0D304C063
S1130E506BE972E080E0CBD32FEF89E698E1215073
S1130E6080409040E1F700C00000CF9108958823AE
S1130E7039F0813049F46DEA72E080E0B8C3089536
S1130E8064EB72E080E0B3C308950F931F93CF9394
S1130E90DF93CDB7DEB7E2970FB6F894DEBF0FBE8F
S1130EA0CDBF8E010F5F1F4F22E3F80111922A95E7
S1130EB0E9F720E329837F936F939F938F938BEBC1
S1130EC092E09F938F931F930F930E941E18B80173
S1130ED080E08DD30FB6F894DEBF0FBECDBFE2968F
S1130EE00FB6F894DEBF0FBECDBFDF91CF911F9137
S1130EF00F910895882319F0813031F0089564ED3D
S1130F0072E080E074C3089562EE72E080E06FC323
S1130F1008950F931F93CF93DF93CDB7DEB7E29776
S1130F200FB6F894DEBF0FBECDBF8E010F5F1F4F0B
S1130F3022E3F80111922A95E9F720E329837F93AC
S1130F406F939F938F9380EF92E09F938F931F9360
S1130F500F930E941E18B80180E049D30FB6F8948D
S1130F60DEBF0FBECDBFE2960FB6F894DEBF0FBE54
S1130F70CDBFDF91CF911F910F9108950F931F93D0
S1130F80CF93DF93CDB7DEB764970FB6F894DEBF87
S1130F900FBECDBF8E010F5F1F4F94E1F801119278
S1130FA09A95E9F790E399831F928F938CE193E0EC
S1130FB09F938F931F930F930E941E18B80180E094
S1130FC016D3FFEF22E587E0F15020408040E1F79F
S1130FD000C000000F900F900F900F900F900F9093
S1130FE064960FB6F894DEBF0FBECDBFDF91CF91EC
S1130FF01F910F91089586B1876086B987B18F7369
S1131000806487B9379A08958F7197B1907E892B40
S113101087B9369A3699FECF84B195B108951F9257
S11310200F920FB60F9211240BB60F922F933F938A
S11310304F935F936F937F938F939F93AF93BF93DC
S1131040EF93FF93E091010AF091020A0995FF9151
S1131050EF91BF91AF919F918F917F916F915F912C
S11310604F913F912F910F900BBE0F900FBE0F9099
S11310701F9018951F920F920FB60F9211240BB662
S11310800F922F933F934F935F936F937F938F931D
S11310909F93AF93BF93EF93FF93E091030AF09173
S11310A0040A0995FF91EF91BF91AF919F918F91A0
S11310B07F916F915F914F913F912F910F900BBE54
S11310C00F900FBE0F901F9018951F920F920FB69E
S11310D00F9211240BB60F922F933F934F935F936C
S11310E06F937F938F939F93AF93BF93EF93FF93EC
S11310F0E091050AF091060A0995FF91EF91BF91DD
S1131100AF919F918F917F916F915F914F913F919B
S11311102F910F900BBE0F900FBE0F901F9018953C
S11311201F920F920FB60F9211240BB60F922F93AA
S11311303F934F935F936F937F938F939F93AF935B
S1131140BF93EF93FF93E091070AF091080A099582
S1131150FF91EF91BF91AF919F918F917F916F918B
S11311605F914F913F912F910F900BBE0F900FBE47
S11311700F901F90189583B78E7F83BF83B78260CB
S113118083BF83B78B7F83BF089583B78E7F83BF6D
S113119083B78D7F83BF83B78B7F83BF08958130EF
S11311A081F028F08230D1F0833029F130C083B748
S11311B08F7B83BF83B7877F83BF87B7816087BFF8
S11311C026C083B78F7B83BF83B7886083BF83B711
S11311D0806183BF83B78F7D83BF19C083B7806469
S11311E083BF83B7886083BF83B78F7E83BF83B792
S11311F0806283BF0CC083B7806483BF83B7877F5B
S113120083BF83B78F7E83BF83B7806283BFBDCF25
S1131210089512BE10929B0310929C0310929D039A
S113122010929E030895CF92DF92EF92FF926A018B
S11312307B0190930A0A8093090A40939303509385
S113124094036093950370939603E3DF81E098E140
S1131250C99E800D112482BFA8EEB3E0A7019601B8
S11312600E940218BB27A92F982F872F0196A11D32
S1131270B11D8093970390939803A0939903B0931F
S11312809A0379DFFF90EF90DF90CF9008951F923B
S11312900F920FB60F9211240BB60F922F933F9318
S11312A04F935F936F937F938F939F93AF93BF936A
S11312B0EF93FF9380919B0390919C03A0919D03D6
S11312C0B0919E030196A11DB11D80939B03909341
S11312D09C03A0939D03B0939E0340919B03509164
S11312E09C0360919D0370919E038091970390915C
S11312F09803A0919903B0919A03481759076A0774
S11313007B07D9F4E091090AF0910A0A0995109231
S11313109B0310929C0310929D0310929E03409194
S1131320930350919403609195037091960381E027
S113133098E1499F800D112482BFFF91EF91BF91E5
S1131340AF919F918F917F916F915F914F913F9159
S11313502F910F900BBE0F900FBE0F901F901895FA
S1131360EAE8F0E080818E7F8083808182608083E0
S113137080818B7F80830895EAE8F0E080818E7F0E
S1131380808380818D7F808380818B7F808308959B
S1131390139A813091F028F08230E1F08330B9F172
S11313A042C0EBE8F0E080818F7B80838081877F7F
S11313B0808387B7816087BF36C083B78F7B83BF45
S11313C083B7886083BF83B7806183BF83B78F7D12
S11313D083BF29C0EBE8F0E080818E7F8083808129
S11313E08260808380818F7B80838081806880831A
S11313F0EAE8F0E080818860808380818061808376
S11314008FEF90E090938100809380000CC083B7AD
S1131410806483BF83B7877F83BF83B78F7E83BF97
S113142083B7806283BFA8CF0895282F30E0AFEF41
S1131430B0E00E94F31724E630E040E050E00E9460
S1131440D117309387002093860008951F920F923E
S11314500FB60F9211240BB60F922F933F934F9315
S11314605F936F937F938F939F93AF93BF93EF9308
S1131470FF938091A7039091A803A091A903B09131
S1131480AA030196A11DB11D8093A7039093A803FD
S1131490A093A903B093AA034091A7035091A80372
S11314A06091A9037091AA038091A3039091A4036E
S11314B0A091A503B091A603481759076A077B07B3
S11314C0D9F4E091090AF0910A0A09951092A70348
S11314D01092A8031092A9031092AA0340919F03AB
S11314E05091A0036091A1037091A20381E098E15F
S11314F0499F800D112482BFFF91EF91BF91AF915D
S11315009F918F917F916F915F914F913F912F9117
S11315100F900BBE0F900FBE0F901F901895CF9396
S1131520C82FDB01CA01880F991FAA1FBB1F880F90
S1131530991FAA1FBB1F9C01AD01220F331F441F1B
S1131540551F220F331F441F551F60E072E18AE7C5
S113155090E00E94D117BA01A901415051096109D3
S11315607109CC2319F0C13071F01BC0BB27A72F20
S1131570962F852F8093900049B988E18AB986E037
S1131580809395000EC0BB27A72F962F852F80939D
S113159098004093990088E180939A0086E08093B4
S11315A09D00CF910895882319F0813029F0089582
S11315B05D9BFECF6CB90895EBE9F0E0808185FF77
S11315C0FDCF60939C000895882319F0813029F0A1
S11315D00CC05F9BFECF8CB10895EBE9F0E08081F5
S11315E08823ECF780919C00089580E008951F9370
S11315F0CF93DF93EB016881662339F0182F21968E
S1131600812FD1DF69916111FBCFDF91CF911F91C0
S11316100895882319F0813041F011C05F9B11C0F7
S11316208CB1FB01808381E0089580919B00882325
S113163054F480919C00FB01808381E0089580E054
S1131640089580E0089580E008951F920F920FB6E8
S11316500F9211240BB60F922F933F934F935F93E6
S11316606F937F938F939F93AF93BF93EF93FF9366
S1131670E091010AF091020A0995FF91EF91BF915F
S1131680AF919F918F917F916F915F914F913F9116
S11316902F910F900BBE0F900FBE0F901F901895B7
S11316A01F920F920FB60F9211240BB60F922F9325
S11316B03F934F935F936F937F938F939F93AF93D6
S11316C0BF93EF93FF93E091030AF091040A099505
S11316D0FF91EF91BF91AF919F918F917F916F9106
S11316E05F914F913F912F910F900BBE0F900FBEC2
S11316F00F901F90189540E855E260E070E080E09C
S11317000ECF0895CF93DF93EC0160E080E04BDFD0
S1131710FE0101900020E9F73197BF016C1B7D0B9E
S113172080E041DFBE0180E062DFDF91CF91089568
S11317300F931F93CF938C01FC0101900020E9F7D4
S1131740E81BCBE0CE0F8C2F90E0029617DC60E113
S113175080E029DF6C2F80E026DF82E493E0D2DF93
S113176064E080E020DF62E080E01DDF6FEF80E076
S11317701ADF6FEF80E017DFC801C4DF61ED72E0AC
S113178080E035DFCF911F910F9108950F931F9340
S1131790CF938C01FC0101900020E9F7E81BC4E021
S11317A0CE0F8C2F90E00296E9DB62E880E0FBDE4E
S11317B06C2F80E0F8DE6091020180E0F4DE60913D
S11317C0010180E0F0DE8091010190910201019617
S11317D09093020180930101C80194DF61E080E0ED
S11317E0E2DE61ED72E080E002DFCF911F910F91A4
S11317F00895CF92DF92EF92FF920F931F93CF93AE
S1131800DF936C017B01142FD22FFC010190002087
S1131810E9F73197E81BF90BC42FCE0F02E00C0F48
S1131820802F90E00396AADBDD2319F0D13051F02C
S113183013C060E380E0B7DE602F80E0B4DEC60151
S113184061DF22C062E380E0AEDE64E06C0F80E022
S1131850AADEC60157DF07C0602F80E0A4DEC60100
S113186051DFD13089F46091020180E09CDE609107
S1131870010180E098DE80910101909102010196BE
S11318809093020180930101112371F0E70111503B
S1131890012F10E00F5F1F4F0E0D1F1D699180E097
S11318A082DE0C171D07D1F76EE273E080E09FDE45
S11318B0DF91CF911F910F91FF90EF90DF90CF9028
S11318C0089582E090E05ADB60EC80E06CDE60E03A
S11318D080E069DE61ED72E080E089CE0895CF9307
S11318E0DF938BE090E0FCD0EC01009729F0FC0141
S11318F011921192CF0128D1CE01DF91CF91089599
S1131900AF92BF92CF92DF92EF92FF920F931F9309
S1131910CF93DF937C016B01A42EB22EB4D6F701D2
S1131920C081D181B11008C081E09E012C213D21EC
S1131930232B51F480E008C081E09E012C213D213D
S11319402C153D0509F080E0882361F0AA2009F4F4
S11319504EC0B601609570956C237D23F7017183A9
S1131960608345C00115110509F441C0AA2019F08E
S113197060E071E002C060E070E0B11074606C2956
S11319807D29A801C70102960E9458153BD78111F1
S113199001C005D20E94351691FD26C00FB6F894F9
S11319A00F92F70180819181B11008C021E0A60156
S11319B048235923452B51F420E008C021E0A60117
S11319C0482359234C155D0509F020E0222351F0EA
S11319D0AA2041F0B6016095709568237923F70138
S11319E0718360830F900FBEEC01DD2701C00AD71D
S11319F0CE01DF91CF911F910F91FF90EF90DF9077
S1131A00CF90BF90AF900895AF92BF92CF92DF92E4
S1131A10EF92FF920F931F93CF93DF937C018B017F
S1131A20EC01259630D6D7011796ED91FC911897C5
S1131A308D919C911197082B192B0D931C93CE1704
S1131A40DF07A1F100E010E0BB24B394A12CC28015
S1131A50D380808191819C01332792FD0AC0D701F4
S1131A606D917C91622373234B2D672B61F44A2D76
S1131A700AC0D7016D917C91622373234B2D6217A9
S1131A80730709F04A2D442359F090FF02C0022B3A
S1131A90132BD7016D917C917260CF010E94BD150B
S1131AA0EC2DFD2DCE17DF0791F602C000E010E00B
S1131AB000951095F70180819181082319231183E2
S1131AC00083A0D6D7018D919C91DF91CF911F9176
S1131AD00F91FF90EF90DF90CF90BF90AF9008955B
S1131AE0CF93DF93EC01CFD58091AB039091AC03FE
S1131AF0892B31F480EB93E09093AC038093AB0398
S1131B002091AD033091AE03C9018C0F9D1F8B3D15
S1131B1045E0940770F42817390770F4C091AB03BB
S1131B20D091AC03C20FD31F9093AE038093AD0347
S1131B3005C0C0E0D0E002C0C0E0D0E063D6CE0172
S1131B40DF91CF9108950895FC01039692838183D8
S1131B502FEF3FEF34832383968385839087878396
S1131B6010820895FC01118610860895CF93DF93A7
S1131B709C01FB01DC011196CD91DC911297D3837A
S1131B80C2838C819D81958384838C819D81DC01BA
S1131B9013967C936E9312977D836C833187208791
S1131BA0F90180818F5F8083DF91CF910895CF9376
S1131BB0DF93EB01488159814F3F2FEF520721F406
S1131BC0FC01A781B0850DC0DC01139601C0DF01C3
S1131BD01296ED91FC91139720813181421753079E
S1131BE0B0F71296ED91FC911397FB83EA83D583AA
S1131BF0C483BD83AC831396DC93CE9312979987E9
S1131C008887FC0120812F5F2083DF91CF91089585
S1131C10CF93DF93FC01A085B185C281D3818481F8
S1131C2095819D838C83C481D581828193819B839B
S1131C308A8311968D919C911297E817F90731F4D4
S1131C408481958112969C938E93119711861086A8
S1131C508C9181508C93DF91CF91089531E1FC01F7
S1131C603083319722E220833197A3E3A083319715
S1131C7060833197708331971082319760E8608375
S1131C8031971082319762E06083319763E060831B
S1131C90319764E06083319765E06083319766E053
S1131CA06083319767E06083319768E060833197A0
S1131CB069E06083319760E16083319730833197C5
S1131CC032E13083319733E13083319734E130832B
S1131CD0319735E13083319736E13083319737E1FD
S1131CE03083319738E13083319739E1308331974C
S1131CF030E23083319731E230833197208331975A
S1131D0023E220833197408331975083319726E231
S1131D102083319727E22083319728E2208331976B
S1131D2029E22083319720E32083319721E3208324
S1131D30869708951BBC8CE78ABD8BE08EBD87B760
S1131D40806187BFA091F409B091F509CD91CDBF11
S1131D50DD91DEBFFF91EF91DF91CF91BF91AF9104
S1131D609F918F917F916F915F914F913F912F91AF
S1131D701F910F91FF90EF90DF90CF90BF90AF90A5
S1131D809F908F907F906F905F904F903F902F9097
S1131D901F900F900FBE0F90089581E008950F9249
S1131DA00FB6F8940F921F9211242F923F924F92E4
S1131DB05F926F927F928F929F92AF92BF92CF92D7
S1131DC0DF92EF92FF920F931F932F933F934F93C2
S1131DD05F936F937F938F939F93AF93BF93CF93AF
S1131DE0DF93EF93FF93A091F409B091F5090DB639
S1131DF00D920EB60D92D5D5A091F409B091F509C6
S1131E00CD91CDBFDD91DEBFFF91EF91DF91CF91F9
S1131E10BF91AF919F918F917F916F915F914F91FE
S1131E203F912F911F910F91FF90EF90DF90CF90F2
S1131E30BF90AF909F908F907F906F905F904F90E6
S1131E403F902F901F900F900FBE0F9008950F9208
S1131E500FB6F8940F921F9211242F923F924F9233
S1131E605F926F927F928F929F92AF92BF92CF9226
S1131E70DF92EF92FF920F931F932F933F934F9311
S1131E805F936F937F938F939F93AF93BF93CF93FE
S1131E90DF93EF93FF93A091F409B091F5090DB688
S1131EA00D920EB60D92F5D381117BD5A091F40954
S1131EB0B091F509CD91CDBFDD91DEBFFF91EF91DA
S1131EC0DF91CF91BF91AF919F918F917F916F914E
S1131ED05F914F913F912F911F910F91FF90EF9040
S1131EE0DF90CF90BF90AF909F908F907F906F9036
S1131EF05F904F903F902F901F900F900FBE0F90C8
S1131F000895A5DF18951F93CF93DF93EC01142F49
S1131F104C8D4423D9F1111116C050E08C819D8160
S1131F200E940C182C8D8C819D81820F911D9D83A4
S1131F308C832A813B818217930740F188819981A0
S1131F409D838C8323C050E08E819F810E940C1856
S1131F508C8D90E09195819591092E813F81280F78
S1131F60391F3F832E83488159812417350730F464
S1131F702A813B81820F931F9F838E83123031F419
S1131F808A8D882319F08A8D81508A8F8A8D8F5F7C
S1131F908A8F80E0DF91CF911F910895FC01448DD9
S1131FA04423A9F050E026813781240F351F37835D
S1131FB02683828193812817390720F080819181BB
S1131FC097838683CB01668177810C940C180895DE
S1131FD00F931F93CF93DF93EC010FB6F8940F92F6
S1131FE08E8D1816ACF48989811105C011C08989B8
S1131FF0811104C00DC08E010F5E1F4FC80179D539
S113200081112FD68E8D81508E8F8E8D18167CF374
S11320108FEF8E8F0F900FBE0FB6F8940F928D8DA9
S11320201816ACF48885811105C011C0888581110A
S113203004C00DC08E01085F1F4FC8015AD581111D
S113204010D68D8D81508D8F8D8D18167CF38FEF6A
S11320508D8F0F900FBEDF91CF911F910F91089537
S1132060CF93DF93EC010FB6F8940F924881598116
S11320702C8D30E07B8D729FC001739F900D1124D5
S1132080FA01E80FF91FFB83EA831A8E5D834C8300
S1132090821B930B840F951F9F838E838FEF8D8FED
S11320A08E8F61110AC08885882369F0CE01089655
S11320B020D5813041F473DE06C0CE01089644DD9C
S11320C0CE01419641DD0F900FBE81E0DF91CF91AB
S11320D008950F931F93CF93DF938823E1F0062F86
S11320E0182F8FE190E0FCDCEC01892BB1F0109FFC
S11320F0C00111240196F4DC99838883892B31F083
S11321001B8F0C8F61E0CE01ABDF07C0CE011BDD5E
S1132110C0E0D0E002C0C0E0D0E0CE01DF91CF91BA
S11321201F910F9108959F92AF92BF92CF92DF9229
S1132130EF92FF920F931F93CF93DF9300D000D0C1
S11321401F92CDB7DEB78C016B015D834C83A22E49
S1132150B12C992493947C0188E0E80EF11C0FB60D
S1132160F8940F92F801928D838D981718F0F2E08D
S1132170AF1215C04A2DB601C801C5DEF801918918
S1132180992339F0C8014196B4D4813021F407DE93
S113219002C0811104DE0F900FBE81E045C08C8126
S11321A09D81892B21F40F900FBE80E03DC0B110BA
S11321B004C0CE01019619D5B92C0F900FBE63D27D
S11321C00FB6F8940F92F801858D8F3F09F4158EA0
S11321D0F801868D8F3F09F4168E0F900FBEBE0155
S11321E06C5F7F4FCE0101960BD5811119C00FB6DC
S11321F0F8940F92F801928D0F900FBE838D98136F
S11322000BC06C817D81C70139D4C801E1DEFAD2EB
S11322108111A5CFC4DDA3CFC801DADEF3D29FCFED
S1132220C801D6DEEFD280E00F900F900F900F9090
S11322300F90DF91CF911F910F91FF90EF90DF905E
S1132240CF90BF90AF909F9008959F92AF92BF920E
S1132250CF92DF92EF92FF920F931F93CF93DF936E
S113226000D000D01F92CDB7DEB78C016B015D8327
S11322704C83922EB12CAA24A3947C0181E1E80E14
S1132280F11C0FB6F8940F92F801828D882321F186
S1132290E680F780B601C80181DE91100EC0F80116
S11322A0828D8150828F8085882391F0C8010896A1
S11322B020D4813069F473DD0BC0F801F782E68223
S11322C08189882329F0C801419613D4811167DDDF
S11322D00F900FBE81E044C08C819D81892B21F435
S11322E00F900FBE80E03CC0B11004C0CE01019637
S11322F07CD4BA2C0F900FBEC6D10FB6F8940F92AF
S1132300F801858D8F3F09F4158EF801868D8F3F76
S113231009F4168E0F900FBEBE016C5F7F4FCE0185
S113232001966ED4811118C00FB6F8940F92F8017B
S1132330828D0F900FBE81110BC06C817D81C7010E
S11323409DD3C80145DE5ED281119BCF28DD99CF94
S1132350C8013EDE57D295CFC8013ADE53D280E0A1
S11323600F900F900F900F900F90DF91CF911F91CE
S11323700F91FF90EF90DF90CF90BF90AF909F9020
S11323800895E091AA09F091AB098081811107C0F9
S11323908FEF9FEF90930401809303010895E091E0
S11323A0AA09F091AB090580F681E02D0680F7813A
S11323B0E02D828193819093040180930301089519
S11323C0CF93DF93EC01E091F409F091F509938345
S11323D082838091920990919309C817D90760F478
S11323E06091F4097091F5098091A8099091A90967
S11323F06E5F7F4FDCDB16C06091F4097091F509C4
S11324008091AA099091AB096E5F7F4FD0DB8091D8
S1132410030190910401C817D90720F4D093040153
S1132420C0930301DF91CF9108954F925F926F9211
S11324307F928F929F92AF92BF92CF92DF92EF9250
S1132440FF920F931F93CF93DF934C01EB015A013B
S1132450290187E390E044DB3C01009709F4D8C0EC
S1132460C114D10409F0D0C0C5013ADBF301908F47
S1132470878B892B19F4C30166DBCAC0F1E0AF1A5C
S1132480B108F3018789908DA80EB91E8881818FC8
S11324908881882381F0D3015A96FE0131969E01EA
S11324A0225E3F4FEF0181918D938881882319F03B
S11324B02E173F07B9F7F30116AA102F063008F0BC
S11324C015E0F301168BE3012296CE014BDBC30129
S11324D00C9648DBF3017186608686E090E0811BF0
S11324E0910995878487738A628AA201B401C50120
S11324F0B5DBF30191838083E114F10419F0F70152
S1132500718260820FB6F8940F92809194098F5F64
S1132510809394098091F4099091F509892BB1F580
S11325207092F5096092F40980919409813009F060
S11325303CC00F2EFEEBEF2EF9E0FF2EF02D0F2EF8
S1132540F4EFCF2EF9E0DF2EF02DC701FDDAF9E02C
S1132550EF0EF11CCE14DF04C1F785EB99E0F4DA39
S11325608CEA99E0F1DA8FE999E0EEDA86E999E00C
S1132570EBDA85EB99E09093AB098093AA098CEA96
S113258099E09093A9098093A8090FC080919009BC
S113259081110BC0E091F409F091F50986890817BF
S11325A020F07092F5096092F40980918C098F5F94
S11325B080938C09F301868990919109981710F4FE
S11325C08093910990E09C01220F331F220F331F47
S11325D0220F331F820F931FBE018254964FC6DA17
S11325E00F900FBE80919009882351F0E091F40977
S11325F0F091F5098689801728F4D1DB81E009C0C0
S113260081E007C081E005C0FC01D08EC78A36CFC7
S11326108FEFDF91CF911F910F91FF90EF90DF909B
S1132620CF90BF90AF909F908F907F906F905F906E
S11326304F900895AF92BF92CF92DF92EF92FF92A4
S11326400F93A12CB12CC12CD12CE12CF12C00E046
S113265020E030E045E550E067E473E08AE994E186
S1132660E4DE813041F4F894809390091092930948
S1132670109292095FDB0F91FF90EF90DF90CF9063
S1132680BF90AF90089580918B098F5F80938B09E1
S11326900895CF92DF92EF92FF920F931F93CF93FF
S11326A0DF9380918B09811197C080919209909159
S11326B0930901969093930980939209E09092096B
S11326C0F0909309E114F104B1F48091AA09909176
S11326D0AB092091A8093091A9093093AB09209343
S11326E0AA099093A9098093A80980918D098F5F05
S11326F080938D0946DE8091030190910401E816D0
S1132700F90610F4D12C50C0D12CCC24C394E09100
S1132710AA09F091AB098081811107C08FEF9FEF67
S113272090930401809303013FC0E091AA09F091C2
S1132730AB090580F681E02DC681D7818A819B8112
S1132740E816F90628F490930401809303012CC041
S11327508E010E5F1F4FC8015BDA8C899D89892B1E
S113276019F0CE010C9654DA8E899091910998173C
S113277010F48093910990E09C01220F331F220FE3
S1132780331F220F331F820F931FB8018254964FB9
S1132790EDD9E091F409F091F5099E89868998179D
S11327A008F4B5CFDC2CB3CFE091F409F091F5092E
S11327B0868990E0FC01EE0FFF1FEE0FFF1FEE0F66
S11327C0FF1F8E0F9F1FFC01E254F64F8081823061
S11327D048F0DD24D39406C080918F098F5F8093E5
S11327E08F09D12C80918E09882311F0DD24D39494
S11327F08D2DDF91CF911F910F91FF90EF90DF907E
S1132800CF900895DF92EF92FF920F931F93CF938F
S1132810DF930FB6F8940F9280918B0981508093C7
S11328208B0980918B0981115DC08091940981117C
S113283030C05BC0D7011596ED91FC911697C68107
S1132840D781CE010C96E4D98E010E5F1F4FC801CB
S1132850DFD98E8990919109981710F4809391098A
S113286090E09C01220F331F220F331F220F331FCE
S1132870820F931FB8018254964F78D9E091F409DE
S1132880F091F5099E898689981758F0D0928E099F
S113289008C00F2EFFE9EF2EF9E0FF2EF02DDD2406
S11328A0D394F70180818111C5CF80918F0988234A
S11328B091F080918F09882371F0C1E0EADE8111E3
S11328C0C0938E0980918F09815080938F098091E4
S11328D08F098111F3CF80918E09813029F45FDA59
S11328E081E003C080E001C080E00F900FBEDF9163
S11328F0CF911F910F91FF90EF90DF900895CF93A8
S1132900DF93EC01892B91F0BEDE809192099091C6
S11329109309C80FD91F8091F4099091F509029683
S113292077D9CE014DDD6EDF811101C038DADF9138
S1132930CF91089506E919E00F2EFEEBEF2EF9E092
S1132940FF2EF02D24C09FDED801CC915BDFCC2379
S1132950F1F00FB6F8940F92D8011596ED91FC9111
S11329601697C681D781CE01029652D980919409D7
S113297081508093940980919509815080939509A1
S11329800F900FBE8F89988DDED8CE01DCD8809150
S113299095098111D8CFF70180818230C0F3FFD926
S11329A0F6CF80918B09882321F081E080938E09F2
S11329B0089510928E098091910990E0FC01EE0F28
S11329C0FF1FEE0FFF1FEE0FFF1F8E0F9F1FFC0157
S11329D0E254F64F8081811117C080919109815092
S11329E0809391098091910990E0FC01EE0FFF1F03
S11329F0EE0FFF1FEE0FFF1F8E0F9F1FFC01E2540F
S1132A00F64F8081882349F38091910990E09C01DD
S1132A10220F331F220F331F220F331F280F391F9A
S1132A20D901A254B64F1196ED91FC9112970280F0
S1132A30F381E02D1296FC93EE9311972F53364FAA
S1132A40E217F30729F422813381FD0132832183C4
S1132A50FC01EE0FFF1FEE0FFF1FEE0FFF1F8E0F87
S1132A609F1FFC01E254F64F0180F281E02D868124
S1132A7097819093F5098093F4090895CF93DF9398
S1132A80EB016091F4097091F509645F7F4F8FD871
S1132A908091F4099091F5090296BAD8809192092F
S1132AA0909193098C0F9D1F8BDCDF91CF9108953A
S1132AB0CF93DF93EA01E091F409F091F50970688E
S1132AC0758764876091F4097091F509645F7F4F9D
S1132AD04DD88091F4099091F509029699D8809186
S1132AE09209909193098C0F9D1F6ADCDF91CF911D
S1132AF008950F931F93CF93DF93DC011596ED9107
S1132B00FC911697C681D7818E01045F1F4FC801BF
S1132B107FD880918B0981111AC00A501109C8010C
S1132B2077D88E8990919109981710F48093910920
S1132B3090E09C01220F331F220F331F220F331FFB
S1132B40820F931FB8018254964F10D804C0B80165
S1132B508FE999E00BD8E091F409F091F5099E8989
S1132B608689891720F481E080938E0901C080E072
S1132B70DF91CF911F910F9108950F931F93CF93DE
S1132B80DF937068FC0171836083C681D78140D86C
S1132B908E010E5F1F4FC8013BD88E899091910919
S1132BA0981710F48093910990E09C01220F331F31
S1132BB0220F331F220F331F820F931FB801825439
S1132BC0964F0E94B60DE091F409F091F5099E89A3
S1132BD08689891720F481E080938E0901C080E002
S1132BE0DF91CF911F910F91089520918D09FC01E0
S1132BF0208320919209309193093283218308958F
S1132C00CF93DF93FC010FB6F8940F9220919209B1
S1132C103091930980918D099081981729F08181D1
S1132C20928128173907A8F4A181B281EB01488168
S1132C305981C9018A1B9B0B8417950760F4CF0146
S1132C40A21BB30B4A0F5B1F59834883CEDF80E07E
S1132C5003C081E001C081E00F900FBEDF91CF91EE
S1132C60089581E080938E090895E091F409F0912C
S1132C70F50984859585E091F409F091F509A09111
S1132C80F409B091F50956964C9126E030E0241BE6
S1132C9031093587248708950CD0E6C0DED040F092
S1132CA0D5D030F021F45F3F19F0C7C0511110C1E5
S1132CB0CAC0EBD098F39923C9F35523B1F3951BFC
S1132CC0550BBB27AA2762177307840738F09F5F49
S1132CD05F4F220F331F441FAA1FA9F333D00E2EB8
S1132CE03AF0E0E830D091505040E695001CCAF725
S1132CF029D0FE2F27D0660F771F881FBB1F2617EA
S1132D0037074807AB07B0E809F0BB0B802DBF01BC
S1132D10FF2793585F4F2AF09E3F510568F08DC0FE
S1132D20D7C05F3FECF3983EDCF3869577956795C3
S1132D30B795F7959F5FC9F7880F911D969587956D
S1132D4097F90895E1E0660F771F881FBB1F62178C
S1132D5073078407BA0720F0621B730B840BBA0B4A
S1132D60EE1F88F7E095089598D088F09F5790F06B
S1132D70B92F9927B751A0F0D1F0660F771F881F9C
S1132D80991F1AF0BA95C9F712C0B13081F09FD0DB
S1132D90B1E008959CC0672F782F8827B85F39F079
S1132DA0B93FCCF3869577956795B395D9F73EF4FB
S1132DB090958095709561957F4F8F4F9F4F0895A3
S1132DC0E89409C097FB3EF49095809570956195C1
S1132DD07F4F8F4F9F4F9923A9F0F92F96E9BB2777
S1132DE09395F695879577956795B795F111F8CFF3
S1132DF0FAF4BB0F11F460FF1BC06F5F7F4F8F4F5E
S1132E009F4F16C0882311F096E911C0772321F053
S1132E109EE8872F762F05C0662371F096E8862FEB
S1132E2070E060E02AF09A95660F771F881FDAF742
S1132E30880F9695879597F9089597F99F6780E885
S1132E4070E060E008959FEF80EC089500240A94F8
S1132E501616170618060906089500240A94121671
S1132E601306140605060895092E0394000C11F4A4
S1132E70882352F0BB0F40F4BF2B11F460FF04C051
S1132E806F5F7F4F8F4F9F4F089557FD9058440FAA
S1132E90551F59F05F3F71F04795880F97FB991FB5
S1132EA061F09F3F79F08795089512161306140672
S1132EB0551FF2CF4695F1DF08C0161617061806FF
S1132EC0991FF1CF86957105610508940895E894DA
S1132ED0BB2766277727CB0197F908950BD0C4CF7A
S1132EE0B5DF28F0BADF18F0952309F0A6CFABCFF1
S1132EF01124EECFCADFA0F3959FD1F3950F50E0D4
S1132F00551F629FF001729FBB27F00DB11D639F97
S1132F10AA27F00DB11DAA1F649F6627B00DA11D3D
S1132F20661F829F2227B00DA11D621F739FB00DE3
S1132F30A11D621F839FA00D611D221F749F332753
S1132F40A00D611D231F849F600D211D822F762FEC
S1132F506A2F11249F5750408AF0E1F088234AF0E9
S1132F60EE0FFF1FBB1F661F771F881F9150504035
S1132F70A9F79E3F510570F060CFAACF5F3FECF3F5
S1132F80983EDCF3869577956795B795F795E79521
S1132F909F5FC1F7FE2B880F911D9695879597F932
S1132FA00895A1E21A2EAA1BBB1BFD010DC0AA1F86
S1132FB0BB1FEE1FFF1FA217B307E407F50720F09E
S1132FC0A21BB30BE40BF50B661F771F881F991F19
S1132FD01A9469F760957095809590959B01AC0162
S1132FE0BD01CF010895A29FB001B39FC001A39F6B
S1132FF0700D811D1124911DB29F700D811D11242E
S1133000911D0895F0DFA59F900DB49F900DA49F8E
S1133010800D911D11240895FB01DC0102C0019073
S11330200D9241505040D8F70895FB01DC018D9179
S1133030019080190110D9F3990B08950F931F93F0
S1133040CF93DF93CDB7DEB72E970FB6F894DEBFDC
S11330500FBECDBF0D891E8986E08C831A83098338
S11330608FEF9FE79E838D83AE01475E5F4F6F892D
S1133070788DCE01019610D0EF81F885E00FF11F15
S113308010822E960FB6F894DEBF0FBECDBFDF912F
S1133090CF911F910F9108952F923F924F925F927B
S11330A06F927F928F929F92AF92BF92CF92DF9254
S11330B0EF92FF920F931F93CF93DF93CDB7DEB7B9
S11330C02B970FB6F894DEBF0FBECDBF6C017B010A
S11330D08A01FC0117821682838181FFBFC1CE0160
S11330E001963C01F6019381F70193FD859193FFCD
S11330F081917F01882309F4ADC1853239F493FDB0
S1133100859193FF81917F01853221F4B60190E08E
S1133110D6D1E8CF912C212C312CFFE1F315D8F036
S11331208B3279F038F4803279F08332A1F4232D94
S113313020611DC08D3261F0803369F4232D21603C
S113314016C0832D8260382EE32DE4603E2E2AC003
S1133150F32DF8601DC037FC2DC020ED280F2A3058
S113316040F08E32B9F436FC75C1232D2064322E22
S113317019C036FE06C08AE0989E200D1124922EB6
S113318011C0EAE02E9E200D1124222EF32DF062B0
S11331903F2E08C08C3621F4832D8068382E02C05F
S11331A0883641F4F70193FD859193FF81917F0166
S11331B08111B3CF982F9F7D9554933028F40C5FE1
S11331C01F4F9FE399830DC0833631F0833771F02D
S11331D0833509F055C020C0F801808189830E5FD2
S11331E01F4F88248394912C530112C02801F2E0CC
S11331F04F0E511CF801A080B18036FE03C0692D2A
S113320070E002C06FEF7FEFC5014ED14C01820127
S1133210F32DFF773F2E15C0280122E0420E511CEA
S1133220F801A080B18036FE03C0692D70E002C0B1
S11332306FEF7FEFC5012DD14C01F32DF0683F2EC8
S1133240820133FC19C0822D90E088169906A0F4FF
S1133250B60180E290E033D12A94F5CFF50137FC32
S1133260859137FE81915F01B60190E028D121104C
S11332702A9421E0821A91088114910479F7E1C01B
S1133280843611F0893639F5F80137FE07C06081BC
S11332907181828193810C5F1F4F08C060817181AD
S11332A0072E000C880B990B0E5F1F4FF32DFF7632
S11332B03F2E97FF09C090958095709561957F4F3B
S11332C08F4F9F4FF0683F2E2AE030E0A30133D1A7
S11332D0882E861844C0853731F4232D2F7EB22ED4
S11332E02AE030E025C0932D997FB92E8F36C1F0A6
S11332F018F4883579F0AEC0803719F0883721F09A
S1133300A9C0E92FE061BE2EB4FE0DC0FB2DF46010
S1133310BF2E09C034FE0AC0292F2660B22E06C073
S113332028E030E005C020E130E002C020E132E0D6
S1133330F801B7FE07C060817181828193810C5FBF
S11333401F4F06C06081718180E090E00E5F1F4FC7
S1133350A301F1D0882E8618FB2DFF773F2E36FE71
S11333600DC0232D2E7FA22E891458F434FE0BC0D9
S113337032FC09C0832D8E7EA82E05C0B82CA32C48
S113338003C0B82C01C0B92CA4FE0FC0FE01E80D87
S1133390F11D8081803321F49A2D997EA92E09C0D4
S11333A0A2FE06C0B394B39404C08A2D867809F0B3
S11333B0B394A3FC10C0A0FE06C0B21480F4280C81
S11333C0922C9B180DC0B21458F4B60180E290E020
S11333D076D0B394F8CFB21418F42B1802C0982CFA
S11333E0212CA4FE0FC0B60180E390E068D0A2FEB9
S11333F016C0A1FC03C088E790E002C088E590E015
S1133400B6010CC08A2D867851F0A1FE02C08BE271
S113341001C080E2A7FC8DE2B60190E050D089148F
S113342030F4B60180E390E04AD09A94F8CF8A94BD
S1133430F301E80DF11D8081B60190E040D08110C8
S1133440F6CF222009F44ECEB60180E290E037D0C8
S11334502A94F7CFF6018681978102C08FEF9FEF00
S11334602B960FB6F894DEBF0FBECDBFDF91CF9180
S11334701F910F91FF90EF90DF90CF90BF90AF908E
S11334809F908F907F906F905F904F903F902F9080
S11334900895FC010590615070400110D8F78095A3
S11334A090958E0F9F1F0895FC016150704001900C
S11334B00110D8F7809590958E0F9F1F08950F9354
S11334C01F93CF93DF93FB01238121FD03C08FEF73
S11334D09FEF2CC022FF16C046815781248135817D
S11334E04217530744F4A081B1819D012F5F3F4FE0
S11334F0318320838C93268137812F5F3F4F37831D
S1133500268314C08B01EC01FB010084F185E02DBE
S11335100995892BE1F6D80116968D919C91179700
S1133520019617969C938E931697CE01DF91CF91B7
S11335301F910F910895FA01AA27283051F12031E3
S113354081F1E8946F936E7F6E5F7F4F8F4F9F4F33
S1133550AF4FB1E03ED0B4E03CD0670F781F891F75
S11335609A1FA11D680F791F8A1F911DA11D6A0F43
S1133570711D811D911DA11D20D009F468943F91F6
S11335802AE0269F11243019305D3193DEF6CF01F5
S11335900895462F4770405D4193B3E00FD0C9F7BB
S11335A0F6CF462F4F70405D4A3318F0495D31FD28
S11335B04052419302D0A9F7EACFB4E0A69597957B
S11335C0879577956795BA95C9F700976105710551
S11335D008959B01AC010A2E06945795479537959B
S11335E02795BA95C9F7620F731F841F951FA01DF5
S10935F00895F894FFCFDA
S11335F6010100FFFF545F53656C665F436F6E7491
S1133606726F6C00545F4D6F6E69746F7200545F15
S1133616436F6E74726F6C00545F436F6E6E6563B6
S11336267400545F5265737048616E646C65003053
S11336363130303132323531393936313900657409
S11336467368005769466920636F6E6E65637465B7
S113365664200057694669206661696C65640031B7
S11336663000313838330062726F6B65722E6869C8
S113367676656D712E636F6D005365727665722083
S1133686636F6E6E65637465642000536572766558
S113369672206661696C6564004665646161005305
S11336A647485F636F6E74726F6C32303230005409
S11336B6656D703D2020202020534D3D20202000A4
S11336C648756D3D2020202020204C3D20202020C0
S11336D6002453432C4F4E23002453432C4F464679
S11336E623002446414E2C4F4E23002446414E2CA3
S11336F64F464623002457502C4F4E230024575040
S11337062C4F46462300244C494748542C3130302C
S11337162300244C494748542C37352300244C496C
S11337264748542C35302300244C494748542C32FE
S1133736352300244C494748542C30230025640083
S11337464C5F4D6F6E69746F7200534D5F4D6F6EB3
S113375669746F72004572726F7200485F4D6F6EC6
S113376669746F7200430041542B43574D4F4445CF
S11337765F4355523D310D0A0041542B43574D4F7B
S113378644455F4355523D320D0A0041542B43577D
S11337964D4F44455F4355523D330D0A0041544550
S11337A6310D0A00415445300D0A0041542B43574C
S11337B64A41505F4355523D222573222C222573DC
S11337C6220D0A0041542B4349504D55583D300DA6
S11337D60A0041542B4349504D55583D310D0A00BA
S11337E641542B43495053544152543D225443505F
S11337F6222C222573222C25730D0A0041542B43B7
S1133806495053454E4445583D33300041542B43AB
S1133816495053454E4445583D25640D0A005C30D5
S11338260D0A0041542B4349505354415455530DEA
S10F38360A004D5154540049444C450014
S9030000FC
